{
  "transactions": [
    {
      "hash": "0xec3ccb0e3dba2d6924f0a45aca8cc13de1228f1c0db7750e63f21e542e3b7181",
      "transactionType": "CALL",
      "contractName": null,
      "contractAddress": "0x5322b6df26db2d35f743fce727228eb5b6bd457b",
      "function": "applyChainUpdates((uint64,bool,bytes,bytes,(bool,uint128,uint128),(bool,uint128,uint128))[])",
      "arguments": [
        "[(6898391096552792247, true, 0x000000000000000000000000b776605d4076e698959928e44980ad9f48f7ef7c, 0x00000000000000000000000063e76bf62c7d581d621952ef5b7cf52716aadaec, (false, 0, 0), (false, 0, 0))]"
      ],
      "transaction": {
        "from": "0xa27467408037088bd4586767c57b00fcb27236c7",
        "to": "0x5322b6df26db2d35f743fce727228eb5b6bd457b",
        "gas": "0x525dc",
        "value": "0x0",
        "input": "0xdb6327dc0000000000000000000000000000000000000000000000000000000000000020000000000000000000000000000000000000000000000000000000000000000100000000000000000000000000000000000000000000000000000000000000200000000000000000000000000000000000000000000000005fbc02272fbf20b70000000000000000000000000000000000000000000000000000000000000001000000000000000000000000000000000000000000000000000000000000014000000000000000000000000000000000000000000000000000000000000001800000000000000000000000000000000000000000000000000000000000000000000000000000000000000000000000000000000000000000000000000000000000000000000000000000000000000000000000000000000000000000000000000000000000000000000000000000000000000000000000000000000000000000000000000000000000000000000000000000000000000000000000000000000000000000000000000000000000000000000000000000000000000000000000000000000000000000000000000000000000000000000000000000000000000020000000000000000000000000b776605d4076e698959928e44980ad9f48f7ef7c000000000000000000000000000000000000000000000000000000000000002000000000000000000000000063e76bf62c7d581d621952ef5b7cf52716aadaec",
        "nonce": "0x56",
        "chainId": "0xaa36a7"
      },
      "additionalContracts": [],
      "isFixedGasLimit": false
    }
  ],
  "receipts": [
    {
      "status": "0x1",
      "cumulativeGasUsed": "0xa130f1",
      "logs": [
        {
          "address": "0x5322b6df26db2d35f743fce727228eb5b6bd457b",
          "topics": [
            "0x8d340f17e19058004c20453540862a9c62778504476f6756755cb33bcd6c38c2"
          ],
          "data": "0x0000000000000000000000000000000000000000000000005fbc02272fbf20b70000000000000000000000000000000000000000000000000000000000000100000000000000000000000000000000000000000000000000000000000000000000000000000000000000000000000000000000000000000000000000000000000000000000000000000000000000000000000000000000000000000000000000000000000000000000000000000000000000000000000000000000000000000000000000000000000000000000000000000000000000000000000000000000000000000000000000000000000000000000000000000000000000000000000000000000000000000000000000000000000000000000000000000000000000002000000000000000000000000063e76bf62c7d581d621952ef5b7cf52716aadaec",
          "blockHash": "0xe0e12658899bc34ddbbbac1986a881a2095fa18e13f2d512f713c0367dc61b03",
          "blockNumber": "0x8e9e87",
          "blockTimestamp": "0x68e218b4",
          "transactionHash": "0xec3ccb0e3dba2d6924f0a45aca8cc13de1228f1c0db7750e63f21e542e3b7181",
          "transactionIndex": "0x68",
          "logIndex": "0xa6",
          "removed": false
        }
      ],
      "logsBloom": "0x00000000000000400000000000000000000000000000400000000000000000000000000000000000000000000000000000000000000000000004000000000000000000000000000000000000000000000000000000000000000000000000000000000000000000000000000000000000000000000000000000000000000000000000000000000000000000000000000000000000080000000000000000000000000000000000000000000000000000000000000000000000000000000000000000000000000000000000000000000000000000000000000000000000000000000040000000000000000000000000000000000000000000000100000000000000",
      "type": "0x2",
      "transactionHash": "0xec3ccb0e3dba2d6924f0a45aca8cc13de1228f1c0db7750e63f21e542e3b7181",
      "transactionIndex": "0x68",
      "blockHash": "0xe0e12658899bc34ddbbbac1986a881a2095fa18e13f2d512f713c0367dc61b03",
      "blockNumber": "0x8e9e87",
      "gasUsed": "0x3ba1c",
      "effectiveGasPrice": "0xf4257",
      "from": "0xa27467408037088bd4586767c57b00fcb27236c7",
      "to": "0x5322b6df26db2d35f743fce727228eb5b6bd457b",
      "contractAddress": null
    }
  ],
  "libraries": [],
  "pending": [],
  "returns": {},
  "timestamp": 1759647925004,
  "chain": 11155111,
  "commit": null
}