{
  "transactions": [
    {
      "hash": "0xad19ceab8f29a9aef91217ab798947b7a5e363b7d741182b1a438fc28a464853",
      "transactionType": "CALL",
      "contractName": null,
      "contractAddress": "0x779877a7b0d9e8603169ddbd7836e478b4624789",
      "function": "approve(address,uint256)",
      "arguments": [
        "0x0BF3dE8c5D3e8A2B34D2BEeB17ABfCeBaf363A59",
        "12208559050945615"
      ],
      "transaction": {
        "from": "0xa27467408037088bd4586767c57b00fcb27236c7",
        "to": "0x779877a7b0d9e8603169ddbd7836e478b4624789",
        "gas": "0x1081f",
        "value": "0x0",
        "input": "0x095ea7b30000000000000000000000000bf3de8c5d3e8a2b34d2beeb17abfcebaf363a59000000000000000000000000000000000000000000000000002b5f9ea973744f",
        "nonce": "0x58",
        "chainId": "0xaa36a7"
      },
      "additionalContracts": [],
      "isFixedGasLimit": false
    },
    {
      "hash": "0x9c3f20cc7f516f7f3b38f1abcbc0298ae988405e59143929f68fb23e2f228566",
      "transactionType": "CALL",
      "contractName": null,
      "contractAddress": "0x19f0fd13b4a9140bcdfc7d70768c8b8c2671188e",
      "function": "approve(address,uint256)",
      "arguments": [
        "0x0BF3dE8c5D3e8A2B34D2BEeB17ABfCeBaf363A59",
        "100000"
      ],
      "transaction": {
        "from": "0xa27467408037088bd4586767c57b00fcb27236c7",
        "to": "0x19f0fd13b4a9140bcdfc7d70768c8b8c2671188e",
        "gas": "0x10c49",
        "value": "0x0",
        "input": "0x095ea7b30000000000000000000000000bf3de8c5d3e8a2b34d2beeb17abfcebaf363a5900000000000000000000000000000000000000000000000000000000000186a0",
        "nonce": "0x59",
        "chainId": "0xaa36a7"
      },
      "additionalContracts": [],
      "isFixedGasLimit": false
    },
    {
      "hash": "0xb5bbc9778c432ecaf3c4dc97207d5d495df306a49513dbaead568b5a4095971e",
      "transactionType": "CALL",
      "contractName": null,
      "contractAddress": "0x0bf3de8c5d3e8a2b34d2beeb17abfcebaf363a59",
      "function": "ccipSend(uint64,(bytes,bytes,(address,uint256)[],address,bytes))",
      "arguments": [
        "6898391096552792247",
        "(0x000000000000000000000000a27467408037088bd4586767c57b00fcb27236c7, 0x, [(0x19F0fD13B4A9140BcDFC7d70768C8b8C2671188E, 100000)], 0x779877A7B0D9E8603169DdbD7836e478b4624789, 0x97a657c90000000000000000000000000000000000000000000000000000000000000000)"
      ],
      "transaction": {
        "from": "0xa27467408037088bd4586767c57b00fcb27236c7",
        "to": "0x0bf3de8c5d3e8a2b34d2beeb17abfcebaf363a59",
        "gas": "0x54007",
        "value": "0x0",
        "input": "0x96f4e9f90000000000000000000000000000000000000000000000005fbc02272fbf20b7000000000000000000000000000000000000000000000000000000000000004000000000000000000000000000000000000000000000000000000000000000a000000000000000000000000000000000000000000000000000000000000000e00000000000000000000000000000000000000000000000000000000000000100000000000000000000000000779877a7b0d9e8603169ddbd7836e478b462478900000000000000000000000000000000000000000000000000000000000001600000000000000000000000000000000000000000000000000000000000000020000000000000000000000000a27467408037088bd4586767c57b00fcb27236c70000000000000000000000000000000000000000000000000000000000000000000000000000000000000000000000000000000000000000000000000000000100000000000000000000000019f0fd13b4a9140bcdfc7d70768c8b8c2671188e00000000000000000000000000000000000000000000000000000000000186a0000000000000000000000000000000000000000000000000000000000000002497a657c9000000000000000000000000000000000000000000000000000000000000000000000000000000000000000000000000000000000000000000000000",
        "nonce": "0x5a",
        "chainId": "0xaa36a7"
      },
      "additionalContracts": [],
      "isFixedGasLimit": false
    }
  ],
  "receipts": [
    {
      "status": "0x1",
      "cumulativeGasUsed": "0x1768608",
      "logs": [
        {
          "address": "0x779877a7b0d9e8603169ddbd7836e478b4624789",
          "topics": [
            "0x8c5be1e5ebec7d5bd14f71427d1e84f3dd0314c0f7b2291e5b200ac8c7c3b925",
            "0x000000000000000000000000a27467408037088bd4586767c57b00fcb27236c7",
            "0x0000000000000000000000000bf3de8c5d3e8a2b34d2beeb17abfcebaf363a59"
          ],
          "data": "0x000000000000000000000000000000000000000000000000002b5f9ea973744f",
          "blockHash": "0x010a0d55433b3c2a7ec5de83dc51ada0f009c68d3ebf6a4ff979ca808a8747ca",
          "blockNumber": "0x8e9e8f",
          "blockTimestamp": "0x68e21914",
          "transactionHash": "0xad19ceab8f29a9aef91217ab798947b7a5e363b7d741182b1a438fc28a464853",
          "transactionIndex": "0x6c",
          "logIndex": "0x96",
          "removed": false
        }
      ],
      "logsBloom": "0x00000004000040000000000000000000000000000000000000000000000000000001000000000800000000000000000000000000000000000000000000200000000000000000000000000000000000000000000000000000000000000000000000000000000100000000000000000000000000002000000000000000000000000000000000000000000000000000800000000000000000000000000000000000020000000000080000000000000000000000000000000000000000000000000000000000000000000000000000000000000000000000000100000000000000000010000000000000000000000000000000000000000000000000000000000000",
      "type": "0x2",
      "transactionHash": "0xad19ceab8f29a9aef91217ab798947b7a5e363b7d741182b1a438fc28a464853",
      "transactionIndex": "0x6c",
      "blockHash": "0x010a0d55433b3c2a7ec5de83dc51ada0f009c68d3ebf6a4ff979ca808a8747ca",
      "blockNumber": "0x8e9e8f",
      "gasUsed": "0xb499",
      "effectiveGasPrice": "0xf4255",
      "from": "0xa27467408037088bd4586767c57b00fcb27236c7",
      "to": "0x779877a7b0d9e8603169ddbd7836e478b4624789",
      "contractAddress": null
    },
    {
      "status": "0x1",
      "cumulativeGasUsed": "0x1773d7a",
      "logs": [
        {
          "address": "0x19f0fd13b4a9140bcdfc7d70768c8b8c2671188e",
          "topics": [
            "0x8c5be1e5ebec7d5bd14f71427d1e84f3dd0314c0f7b2291e5b200ac8c7c3b925",
            "0x000000000000000000000000a27467408037088bd4586767c57b00fcb27236c7",
            "0x0000000000000000000000000bf3de8c5d3e8a2b34d2beeb17abfcebaf363a59"
          ],
          "data": "0x00000000000000000000000000000000000000000000000000000000000186a0",
          "blockHash": "0x010a0d55433b3c2a7ec5de83dc51ada0f009c68d3ebf6a4ff979ca808a8747ca",
          "blockNumber": "0x8e9e8f",
          "blockTimestamp": "0x68e21914",
          "transactionHash": "0x9c3f20cc7f516f7f3b38f1abcbc0298ae988405e59143929f68fb23e2f228566",
          "transactionIndex": "0x6d",
          "logIndex": "0x97",
          "removed": false
        }
      ],
      "logsBloom": "0x00000000000040000000000000000000000000000000000080000000000000000001000000000800000000400000000000000000000000000000000000200000000000000000000000000000000000000000000000000000000000000000000000000000000100000000000000000000000000002000000000000000000000000000000000000000000000000000000000000000000000000000000000000000020000000000080000000000000000000000000000000000000000000000000000000000000000004000000000000000000000000000000000000000000000000010000000000000000000000000000000000000000000000000000000000000",
      "type": "0x2",
      "transactionHash": "0x9c3f20cc7f516f7f3b38f1abcbc0298ae988405e59143929f68fb23e2f228566",
      "transactionIndex": "0x6d",
      "blockHash": "0x010a0d55433b3c2a7ec5de83dc51ada0f009c68d3ebf6a4ff979ca808a8747ca",
      "blockNumber": "0x8e9e8f",
      "gasUsed": "0xb772",
      "effectiveGasPrice": "0xf4255",
      "from": "0xa27467408037088bd4586767c57b00fcb27236c7",
      "to": "0x19f0fd13b4a9140bcdfc7d70768c8b8c2671188e",
      "contractAddress": null
    },
    {
      "status": "0x1",
      "cumulativeGasUsed": "0x17b0a88",
      "logs": [
        {
          "address": "0x779877a7b0d9e8603169ddbd7836e478b4624789",
          "topics": [
            "0xddf252ad1be2c89b69c2b068fc378daa952ba7f163c4a11628f55a4df523b3ef",
            "0x000000000000000000000000a27467408037088bd4586767c57b00fcb27236c7",
            "0x000000000000000000000000a2865e4f36760f5fa5c8f958336120f2df0d974b"
          ],
          "data": "0x000000000000000000000000000000000000000000000000002b5f9ea973744f",
          "blockHash": "0x010a0d55433b3c2a7ec5de83dc51ada0f009c68d3ebf6a4ff979ca808a8747ca",
          "blockNumber": "0x8e9e8f",
          "blockTimestamp": "0x68e21914",
          "transactionHash": "0xb5bbc9778c432ecaf3c4dc97207d5d495df306a49513dbaead568b5a4095971e",
          "transactionIndex": "0x6e",
          "logIndex": "0x98",
          "removed": false
        },
        {
          "address": "0x779877a7b0d9e8603169ddbd7836e478b4624789",
          "topics": [
            "0x8c5be1e5ebec7d5bd14f71427d1e84f3dd0314c0f7b2291e5b200ac8c7c3b925",
            "0x000000000000000000000000a27467408037088bd4586767c57b00fcb27236c7",
            "0x0000000000000000000000000bf3de8c5d3e8a2b34d2beeb17abfcebaf363a59"
          ],
          "data": "0x0000000000000000000000000000000000000000000000000000000000000000",
          "blockHash": "0x010a0d55433b3c2a7ec5de83dc51ada0f009c68d3ebf6a4ff979ca808a8747ca",
          "blockNumber": "0x8e9e8f",
          "blockTimestamp": "0x68e21914",
          "transactionHash": "0xb5bbc9778c432ecaf3c4dc97207d5d495df306a49513dbaead568b5a4095971e",
          "transactionIndex": "0x6e",
          "logIndex": "0x99",
          "removed": false
        },
        {
          "address": "0x19f0fd13b4a9140bcdfc7d70768c8b8c2671188e",
          "topics": [
            "0xddf252ad1be2c89b69c2b068fc378daa952ba7f163c4a11628f55a4df523b3ef",
            "0x0000000000000000000000000000000000000000000000000000000000000000",
            "0x000000000000000000000000a27467408037088bd4586767c57b00fcb27236c7"
          ],
          "data": "0x0000000000000000000000000000000000000000000000000000000000000000",
          "blockHash": "0x010a0d55433b3c2a7ec5de83dc51ada0f009c68d3ebf6a4ff979ca808a8747ca",
          "blockNumber": "0x8e9e8f",
          "blockTimestamp": "0x68e21914",
          "transactionHash": "0xb5bbc9778c432ecaf3c4dc97207d5d495df306a49513dbaead568b5a4095971e",
          "transactionIndex": "0x6e",
          "logIndex": "0x9a",
          "removed": false
        },
        {
          "address": "0x19f0fd13b4a9140bcdfc7d70768c8b8c2671188e",
          "topics": [
            "0xddf252ad1be2c89b69c2b068fc378daa952ba7f163c4a11628f55a4df523b3ef",
            "0x0000000000000000000000000000000000000000000000000000000000000000",
            "0x0000000000000000000000005322b6df26db2d35f743fce727228eb5b6bd457b"
          ],
          "data": "0x0000000000000000000000000000000000000000000000000000000000000000",
          "blockHash": "0x010a0d55433b3c2a7ec5de83dc51ada0f009c68d3ebf6a4ff979ca808a8747ca",
          "blockNumber": "0x8e9e8f",
          "blockTimestamp": "0x68e21914",
          "transactionHash": "0xb5bbc9778c432ecaf3c4dc97207d5d495df306a49513dbaead568b5a4095971e",
          "transactionIndex": "0x6e",
          "logIndex": "0x9b",
          "removed": false
        },
        {
          "address": "0x19f0fd13b4a9140bcdfc7d70768c8b8c2671188e",
          "topics": [
            "0xddf252ad1be2c89b69c2b068fc378daa952ba7f163c4a11628f55a4df523b3ef",
            "0x000000000000000000000000a27467408037088bd4586767c57b00fcb27236c7",
            "0x0000000000000000000000005322b6df26db2d35f743fce727228eb5b6bd457b"
          ],
          "data": "0x00000000000000000000000000000000000000000000000000000000000186a0",
          "blockHash": "0x010a0d55433b3c2a7ec5de83dc51ada0f009c68d3ebf6a4ff979ca808a8747ca",
          "blockNumber": "0x8e9e8f",
          "blockTimestamp": "0x68e21914",
          "transactionHash": "0xb5bbc9778c432ecaf3c4dc97207d5d495df306a49513dbaead568b5a4095971e",
          "transactionIndex": "0x6e",
          "logIndex": "0x9c",
          "removed": false
        },
        {
          "address": "0x19f0fd13b4a9140bcdfc7d70768c8b8c2671188e",
          "topics": [
            "0xddf252ad1be2c89b69c2b068fc378daa952ba7f163c4a11628f55a4df523b3ef",
            "0x0000000000000000000000000000000000000000000000000000000000000000",
            "0x0000000000000000000000005322b6df26db2d35f743fce727228eb5b6bd457b"
          ],
          "data": "0x0000000000000000000000000000000000000000000000000000000000000000",
          "blockHash": "0x010a0d55433b3c2a7ec5de83dc51ada0f009c68d3ebf6a4ff979ca808a8747ca",
          "blockNumber": "0x8e9e8f",
          "blockTimestamp": "0x68e21914",
          "transactionHash": "0xb5bbc9778c432ecaf3c4dc97207d5d495df306a49513dbaead568b5a4095971e",
          "transactionIndex": "0x6e",
          "logIndex": "0x9d",
          "removed": false
        },
        {
          "address": "0x19f0fd13b4a9140bcdfc7d70768c8b8c2671188e",
          "topics": [
            "0xddf252ad1be2c89b69c2b068fc378daa952ba7f163c4a11628f55a4df523b3ef",
            "0x0000000000000000000000005322b6df26db2d35f743fce727228eb5b6bd457b",
            "0x0000000000000000000000000000000000000000000000000000000000000000"
          ],
          "data": "0x00000000000000000000000000000000000000000000000000000000000186a0",
          "blockHash": "0x010a0d55433b3c2a7ec5de83dc51ada0f009c68d3ebf6a4ff979ca808a8747ca",
          "blockNumber": "0x8e9e8f",
          "blockTimestamp": "0x68e21914",
          "transactionHash": "0xb5bbc9778c432ecaf3c4dc97207d5d495df306a49513dbaead568b5a4095971e",
          "transactionIndex": "0x6e",
          "logIndex": "0x9e",
          "removed": false
        },
        {
          "address": "0xa2865e4f36760f5fa5c8f958336120f2df0d974b",
          "topics": [
            "0xd0c3c799bf9e2639de44391e7f524d229b2b55f5b1ea94b2bf7da42f7243dddd"
          ],
          "data": "0x0000000000000000000000000000000000000000000000000000000000000020000000000000000000000000000000000000000000000000de41ba4fc9d91ad9000000000000000000000000a27467408037088bd4586767c57b00fcb27236c7000000000000000000000000a27467408037088bd4586767c57b00fcb27236c700000000000000000000000000000000000000000000000000000000000002fe000000000000000000000000000000000000000000000000000000000000000000000000000000000000000000000000000000000000000000000000000000000000000000000000000000000000000000000000000000000000000000000002000000000000000000000000779877a7b0d9e8603169ddbd7836e478b4624789000000000000000000000000000000000000000000000000002b5f9ea973744f00000000000000000000000000000000000000000000000000000000000001a000000000000000000000000000000000000000000000000000000000000001c00000000000000000000000000000000000000000000000000000000000000220e41564206167dfd580dee24dbc3b11725eb3d6b2d6b70490848936438d3a97570000000000000000000000000000000000000000000000000000000000000000000000000000000000000000000000000000000000000000000000000000000100000000000000000000000019f0fd13b4a9140bcdfc7d70768c8b8c2671188e00000000000000000000000000000000000000000000000000000000000186a00000000000000000000000000000000000000000000000000000000000000001000000000000000000000000000000000000000000000000000000000000002000000000000000000000000000000000000000000000000000000000000001600000000000000000000000000000000000000000000000000000000000000020000000000000000000000000000000000000000000000000000000000000008000000000000000000000000000000000000000000000000000000000000000c000000000000000000000000000000000000000000000000000000000000001000000000000000000000000000000000000000000000000000000000000015f9000000000000000000000000000000000000000000000000000000000000000200000000000000000000000005322b6df26db2d35f743fce727228eb5b6bd457b000000000000000000000000000000000000000000000000000000000000002000000000000000000000000063e76bf62c7d581d621952ef5b7cf52716aadaec00000000000000000000000000000000000000000000000000000000000000200000000000000000000000000000000000000000000000000000000ba43b7400",
          "blockHash": "0x010a0d55433b3c2a7ec5de83dc51ada0f009c68d3ebf6a4ff979ca808a8747ca",
          "blockNumber": "0x8e9e8f",
          "blockTimestamp": "0x68e21914",
          "transactionHash": "0xb5bbc9778c432ecaf3c4dc97207d5d495df306a49513dbaead568b5a4095971e",
          "transactionIndex": "0x6e",
          "logIndex": "0x9f",
          "removed": false
        }
      ],
      "logsBloom": "0x00000004000040000000000000000000000000000000000080000000000000000001000000000800000000400000000000000000000000000000000000200000000000000000000000000008000000000000000000000000000000000000000010001000020100000000000000000800000000002000100000000010000000000000000000000000000000000000800400000000000000000000000000000000020000000000080400000000000000000000000000800000000100010000000000000002000000004000000000000000000000000100000100000000000020000010800000000000000000000000000004000800000000000000000000000000",
      "type": "0x2",
      "transactionHash": "0xb5bbc9778c432ecaf3c4dc97207d5d495df306a49513dbaead568b5a4095971e",
      "transactionIndex": "0x6e",
      "blockHash": "0x010a0d55433b3c2a7ec5de83dc51ada0f009c68d3ebf6a4ff979ca808a8747ca",
      "blockNumber": "0x8e9e8f",
      "gasUsed": "0x3cd0e",
      "effectiveGasPrice": "0xf4255",
      "from": "0xa27467408037088bd4586767c57b00fcb27236c7",
      "to": "0x0bf3de8c5d3e8a2b34d2beeb17abfcebaf363a59",
      "contractAddress": null
    }
  ],
  "libraries": [],
  "pending": [],
  "returns": {},
  "timestamp": 1759648021202,
  "chain": 11155111,
  "commit": null
}